{
  "contractName": "Voting",
  "abi": [
    {
      "anonymous": false,
      "inputs": [
        {
          "indexed": true,
          "internalType": "address",
          "name": "previousOwner",
          "type": "address"
        },
        {
          "indexed": true,
          "internalType": "address",
          "name": "newOwner",
          "type": "address"
        }
      ],
      "name": "OwnershipTransferred",
      "type": "event"
    },
    {
      "anonymous": false,
      "inputs": [
        {
          "indexed": false,
          "internalType": "uint256",
          "name": "proposalId",
          "type": "uint256"
        }
      ],
      "name": "ProposalRegistered",
      "type": "event"
    },
    {
      "anonymous": false,
      "inputs": [
        {
          "indexed": false,
          "internalType": "address",
          "name": "voter",
          "type": "address"
        },
        {
          "indexed": false,
          "internalType": "uint256",
          "name": "proposalId",
          "type": "uint256"
        }
      ],
      "name": "Voted",
      "type": "event"
    },
    {
      "anonymous": false,
      "inputs": [
        {
          "indexed": false,
          "internalType": "address",
          "name": "voterAddress",
          "type": "address"
        }
      ],
      "name": "VoterRegistered",
      "type": "event"
    },
    {
      "anonymous": false,
      "inputs": [
        {
          "indexed": false,
          "internalType": "enum Voting.WorkflowStatus",
          "name": "previousStatus",
          "type": "uint8"
        },
        {
          "indexed": false,
          "internalType": "enum Voting.WorkflowStatus",
          "name": "newStatus",
          "type": "uint8"
        }
      ],
      "name": "WorkflowStatusChange",
      "type": "event"
    },
    {
      "inputs": [],
      "name": "owner",
      "outputs": [
        {
          "internalType": "address",
          "name": "",
          "type": "address"
        }
      ],
      "stateMutability": "view",
      "type": "function",
      "constant": true
    },
    {
      "inputs": [],
      "name": "renounceOwnership",
      "outputs": [],
      "stateMutability": "nonpayable",
      "type": "function"
    },
    {
      "inputs": [
        {
          "internalType": "address",
          "name": "newOwner",
          "type": "address"
        }
      ],
      "name": "transferOwnership",
      "outputs": [],
      "stateMutability": "nonpayable",
      "type": "function"
    },
    {
      "inputs": [],
      "name": "winningProposalID",
      "outputs": [
        {
          "internalType": "uint256",
          "name": "",
          "type": "uint256"
        }
      ],
      "stateMutability": "view",
      "type": "function",
      "constant": true
    },
    {
      "inputs": [],
      "name": "workflowStatus",
      "outputs": [
        {
          "internalType": "enum Voting.WorkflowStatus",
          "name": "",
          "type": "uint8"
        }
      ],
      "stateMutability": "view",
      "type": "function",
      "constant": true
    },
    {
      "inputs": [
        {
          "internalType": "address",
          "name": "_addr",
          "type": "address"
        }
      ],
      "name": "getVoter",
      "outputs": [
        {
          "components": [
            {
              "internalType": "bool",
              "name": "isRegistered",
              "type": "bool"
            },
            {
              "internalType": "bool",
              "name": "hasVoted",
              "type": "bool"
            },
            {
              "internalType": "uint256",
              "name": "votedProposalId",
              "type": "uint256"
            }
          ],
          "internalType": "struct Voting.Voter",
          "name": "",
          "type": "tuple"
        }
      ],
      "stateMutability": "view",
      "type": "function",
      "constant": true
    },
    {
      "inputs": [
        {
          "internalType": "uint256",
          "name": "_id",
          "type": "uint256"
        }
      ],
      "name": "getOneProposal",
      "outputs": [
        {
          "components": [
            {
              "internalType": "string",
              "name": "description",
              "type": "string"
            },
            {
              "internalType": "uint256",
              "name": "voteCount",
              "type": "uint256"
            }
          ],
          "internalType": "struct Voting.Proposal",
          "name": "",
          "type": "tuple"
        }
      ],
      "stateMutability": "view",
      "type": "function",
      "constant": true
    },
    {
      "inputs": [
        {
          "internalType": "address",
          "name": "_addr",
          "type": "address"
        }
      ],
      "name": "addVoter",
      "outputs": [],
      "stateMutability": "nonpayable",
      "type": "function"
    },
    {
      "inputs": [
        {
          "internalType": "string",
          "name": "_desc",
          "type": "string"
        }
      ],
      "name": "addProposal",
      "outputs": [],
      "stateMutability": "nonpayable",
      "type": "function"
    },
    {
      "inputs": [
        {
          "internalType": "uint256",
          "name": "_id",
          "type": "uint256"
        }
      ],
      "name": "setVote",
      "outputs": [],
      "stateMutability": "nonpayable",
      "type": "function"
    },
    {
      "inputs": [],
      "name": "startProposalsRegistering",
      "outputs": [],
      "stateMutability": "nonpayable",
      "type": "function"
    },
    {
      "inputs": [],
      "name": "endProposalsRegistering",
      "outputs": [],
      "stateMutability": "nonpayable",
      "type": "function"
    },
    {
      "inputs": [],
      "name": "startVotingSession",
      "outputs": [],
      "stateMutability": "nonpayable",
      "type": "function"
    },
    {
      "inputs": [],
      "name": "endVotingSession",
      "outputs": [],
      "stateMutability": "nonpayable",
      "type": "function"
    },
    {
      "inputs": [],
      "name": "tallyVotes",
      "outputs": [],
      "stateMutability": "nonpayable",
      "type": "function"
    }
  ],
  "bytecode": "0x608060405234801561001057600080fd5b5061002d61002261003260201b60201c565b61003a60201b60201c565b6100fe565b600033905090565b60008060009054906101000a900473ffffffffffffffffffffffffffffffffffffffff169050816000806101000a81548173ffffffffffffffffffffffffffffffffffffffff021916908373ffffffffffffffffffffffffffffffffffffffff1602179055508173ffffffffffffffffffffffffffffffffffffffff168173ffffffffffffffffffffffffffffffffffffffff167f8be0079c531659141344cd1fd0a4f28419497f9722a3daafe3b4186f6b6457e060405160405180910390a35050565b612455806200010e6000396000f3fe608060405234801561001057600080fd5b50600436106100f55760003560e01c8063a7bfab1611610097578063d4f50f9811610066578063d4f50f98146101ee578063ee74c6781461021e578063f2fde38b14610228578063f4ab9adf14610244576100f5565b8063a7bfab16146101b2578063bdc01431146101bc578063c7038a4e146101da578063c88af42f146101e4576100f5565b8063715018a6116100d3578063715018a61461013c5780638da5cb5b14610146578063a1edffa214610164578063a2788cce14610182576100f5565b8063230796ae146100fa5780632fdae3c514610116578063378a217814610132575b600080fd5b610114600480360381019061010f9190611451565b610260565b005b610130600480360381019061012b91906114e3565b61055b565b005b61013a6107de565b005b61014461094b565b005b61014e61095f565b60405161015b9190611571565b60405180910390f35b61016c610988565b6040516101799190611603565b60405180910390f35b61019c60048036038101906101979190611451565b61099b565b6040516101a991906116fa565b60405180910390f35b6101ba610b02565b005b6101c4610be8565b6040516101d1919061172b565b60405180910390f35b6101e2610bee565b005b6101ec610d69565b005b61020860048036038101906102039190611772565b610e4e565b60405161021591906117fc565b60405180910390f35b610226610f76565b005b610242600480360381019061023d9190611772565b61105c565b005b61025e60048036038101906102599190611772565b6110df565b005b600460003373ffffffffffffffffffffffffffffffffffffffff1673ffffffffffffffffffffffffffffffffffffffff16815260200190815260200160002060000160009054906101000a900460ff166102ef576040517f08c379a00000000000000000000000000000000000000000000000000000000081526004016102e690611874565b60405180910390fd5b600360058111156103035761030261158c565b5b600260009054906101000a900460ff1660058111156103255761032461158c565b5b14610365576040517f08c379a000000000000000000000000000000000000000000000000000000000815260040161035c90611906565b60405180910390fd5b60011515600460003373ffffffffffffffffffffffffffffffffffffffff1673ffffffffffffffffffffffffffffffffffffffff16815260200190815260200160002060000160019054906101000a900460ff161515036103fb576040517f08c379a00000000000000000000000000000000000000000000000000000000081526004016103f290611972565b60405180910390fd5b6003805490508110610442576040517f08c379a0000000000000000000000000000000000000000000000000000000008152600401610439906119de565b60405180910390fd5b80600460003373ffffffffffffffffffffffffffffffffffffffff1673ffffffffffffffffffffffffffffffffffffffff168152602001908152602001600020600101819055506001600460003373ffffffffffffffffffffffffffffffffffffffff1673ffffffffffffffffffffffffffffffffffffffff16815260200190815260200160002060000160016101000a81548160ff021916908315150217905550600381815481106104f8576104f76119fe565b5b9060005260206000209060020201600101600081548092919061051a90611a5c565b91905055507f4d99b957a2bc29a30ebd96a7be8e68fe50a3c701db28a91436490b7d53870ca43382604051610550929190611aa4565b60405180910390a150565b600460003373ffffffffffffffffffffffffffffffffffffffff1673ffffffffffffffffffffffffffffffffffffffff16815260200190815260200160002060000160009054906101000a900460ff166105ea576040517f08c379a00000000000000000000000000000000000000000000000000000000081526004016105e190611874565b60405180910390fd5b600160058111156105fe576105fd61158c565b5b600260009054906101000a900460ff1660058111156106205761061f61158c565b5b14610660576040517f08c379a000000000000000000000000000000000000000000000000000000000815260040161065790611b19565b60405180910390fd5b60405160200161066f90611b5f565b604051602081830303815290604052805190602001208282604051602001610698929190611bbb565b60405160208183030381529060405280519060200120036106ee576040517f08c379a00000000000000000000000000000000000000000000000000000000081526004016106e590611c51565b60405180910390fd5b6106f66113d2565b82828080601f016020809104026020016040519081016040528093929190818152602001838380828437600081840152601f19601f820116905080830192505050505050508160000181905250600381908060018154018082558091505060019003906000526020600020906002020160009091909190915060008201518160000190816107849190611eac565b506020820151816001015550507f92e393e9b54e2f801d3ea4beb0c5e71a21cc34a5d34b77d0fb8a3aa1650dc18f60016003805490506107c49190611f7e565b6040516107d1919061172b565b60405180910390a1505050565b6107e6611288565b600460058111156107fa576107f961158c565b5b600260009054906101000a900460ff16600581111561081c5761081b61158c565b5b1461085c576040517f08c379a000000000000000000000000000000000000000000000000000000000815260040161085390612024565b60405180910390fd5b600080600090505b6003805490508110156108da5760038281548110610885576108846119fe565b5b906000526020600020906002020160010154600382815481106108ab576108aa6119fe565b5b90600052602060002090600202016001015411156108c7578091505b80806108d290611a5c565b915050610864565b50806001819055506005600260006101000a81548160ff021916908360058111156109085761090761158c565b5b02179055507f0a97a4ee45751e2abf3e4fc8946939630b11b371ea8ae39ccdc3056e98f5cc3f60046005604051610940929190612044565b60405180910390a150565b610953611288565b61095d6000611306565b565b60008060009054906101000a900473ffffffffffffffffffffffffffffffffffffffff16905090565b600260009054906101000a900460ff1681565b6109a36113d2565b600460003373ffffffffffffffffffffffffffffffffffffffff1673ffffffffffffffffffffffffffffffffffffffff16815260200190815260200160002060000160009054906101000a900460ff16610a32576040517f08c379a0000000000000000000000000000000000000000000000000000000008152600401610a2990611874565b60405180910390fd5b60038281548110610a4657610a456119fe565b5b9060005260206000209060020201604051806040016040529081600082018054610a6f90611ccf565b80601f0160208091040260200160405190810160405280929190818152602001828054610a9b90611ccf565b8015610ae85780601f10610abd57610100808354040283529160200191610ae8565b820191906000526020600020905b815481529060010190602001808311610acb57829003601f168201915b505050505081526020016001820154815250509050919050565b610b0a611288565b60036005811115610b1e57610b1d61158c565b5b600260009054906101000a900460ff166005811115610b4057610b3f61158c565b5b14610b80576040517f08c379a0000000000000000000000000000000000000000000000000000000008152600401610b7790611906565b60405180910390fd5b6004600260006101000a81548160ff02191690836005811115610ba657610ba561158c565b5b02179055507f0a97a4ee45751e2abf3e4fc8946939630b11b371ea8ae39ccdc3056e98f5cc3f60036004604051610bde929190612044565b60405180910390a1565b60015481565b610bf6611288565b60006005811115610c0a57610c0961158c565b5b600260009054906101000a900460ff166005811115610c2c57610c2b61158c565b5b14610c6c576040517f08c379a0000000000000000000000000000000000000000000000000000000008152600401610c63906120df565b60405180910390fd5b6001600260006101000a81548160ff02191690836005811115610c9257610c9161158c565b5b0217905550610c9f6113d2565b6040518060400160405280600781526020017f47454e4553495300000000000000000000000000000000000000000000000000815250816000018190525060038190806001815401808255809150506001900390600052602060002090600202016000909190919091506000820151816000019081610d1e9190611eac565b506020820151816001015550507f0a97a4ee45751e2abf3e4fc8946939630b11b371ea8ae39ccdc3056e98f5cc3f60006001604051610d5e929190612044565b60405180910390a150565b610d71611288565b60016005811115610d8557610d8461158c565b5b600260009054906101000a900460ff166005811115610da757610da661158c565b5b14610de7576040517f08c379a0000000000000000000000000000000000000000000000000000000008152600401610dde90612171565b60405180910390fd5b60028060006101000a81548160ff02191690836005811115610e0c57610e0b61158c565b5b02179055507f0a97a4ee45751e2abf3e4fc8946939630b11b371ea8ae39ccdc3056e98f5cc3f60016002604051610e44929190612044565b60405180910390a1565b610e566113ec565b600460003373ffffffffffffffffffffffffffffffffffffffff1673ffffffffffffffffffffffffffffffffffffffff16815260200190815260200160002060000160009054906101000a900460ff16610ee5576040517f08c379a0000000000000000000000000000000000000000000000000000000008152600401610edc90611874565b60405180910390fd5b600460008373ffffffffffffffffffffffffffffffffffffffff1673ffffffffffffffffffffffffffffffffffffffff1681526020019081526020016000206040518060600160405290816000820160009054906101000a900460ff161515151581526020016000820160019054906101000a900460ff161515151581526020016001820154815250509050919050565b610f7e611288565b60026005811115610f9257610f9161158c565b5b600260009054906101000a900460ff166005811115610fb457610fb361158c565b5b14610ff4576040517f08c379a0000000000000000000000000000000000000000000000000000000008152600401610feb90612203565b60405180910390fd5b6003600260006101000a81548160ff0219169083600581111561101a5761101961158c565b5b02179055507f0a97a4ee45751e2abf3e4fc8946939630b11b371ea8ae39ccdc3056e98f5cc3f60026003604051611052929190612044565b60405180910390a1565b611064611288565b600073ffffffffffffffffffffffffffffffffffffffff168173ffffffffffffffffffffffffffffffffffffffff16036110d3576040517f08c379a00000000000000000000000000000000000000000000000000000000081526004016110ca90612295565b60405180910390fd5b6110dc81611306565b50565b6110e7611288565b600060058111156110fb576110fa61158c565b5b600260009054906101000a900460ff16600581111561111d5761111c61158c565b5b1461115d576040517f08c379a000000000000000000000000000000000000000000000000000000000815260040161115490612327565b60405180910390fd5b60011515600460008373ffffffffffffffffffffffffffffffffffffffff1673ffffffffffffffffffffffffffffffffffffffff16815260200190815260200160002060000160009054906101000a900460ff161515036111f3576040517f08c379a00000000000000000000000000000000000000000000000000000000081526004016111ea90612393565b60405180910390fd5b6001600460008373ffffffffffffffffffffffffffffffffffffffff1673ffffffffffffffffffffffffffffffffffffffff16815260200190815260200160002060000160006101000a81548160ff0219169083151502179055507fb6be2187d059cc2a55fe29e0e503b566e1e0f8c8780096e185429350acffd3dd8160405161127d9190611571565b60405180910390a150565b6112906113ca565b73ffffffffffffffffffffffffffffffffffffffff166112ae61095f565b73ffffffffffffffffffffffffffffffffffffffff1614611304576040517f08c379a00000000000000000000000000000000000000000000000000000000081526004016112fb906123ff565b60405180910390fd5b565b60008060009054906101000a900473ffffffffffffffffffffffffffffffffffffffff169050816000806101000a81548173ffffffffffffffffffffffffffffffffffffffff021916908373ffffffffffffffffffffffffffffffffffffffff1602179055508173ffffffffffffffffffffffffffffffffffffffff168173ffffffffffffffffffffffffffffffffffffffff167f8be0079c531659141344cd1fd0a4f28419497f9722a3daafe3b4186f6b6457e060405160405180910390a35050565b600033905090565b604051806040016040528060608152602001600081525090565b6040518060600160405280600015158152602001600015158152602001600081525090565b600080fd5b600080fd5b6000819050919050565b61142e8161141b565b811461143957600080fd5b50565b60008135905061144b81611425565b92915050565b60006020828403121561146757611466611411565b5b60006114758482850161143c565b91505092915050565b600080fd5b600080fd5b600080fd5b60008083601f8401126114a3576114a261147e565b5b8235905067ffffffffffffffff8111156114c0576114bf611483565b5b6020830191508360018202830111156114dc576114db611488565b5b9250929050565b600080602083850312156114fa576114f9611411565b5b600083013567ffffffffffffffff81111561151857611517611416565b5b6115248582860161148d565b92509250509250929050565b600073ffffffffffffffffffffffffffffffffffffffff82169050919050565b600061155b82611530565b9050919050565b61156b81611550565b82525050565b60006020820190506115866000830184611562565b92915050565b7f4e487b7100000000000000000000000000000000000000000000000000000000600052602160045260246000fd5b600681106115cc576115cb61158c565b5b50565b60008190506115dd826115bb565b919050565b60006115ed826115cf565b9050919050565b6115fd816115e2565b82525050565b600060208201905061161860008301846115f4565b92915050565b600081519050919050565b600082825260208201905092915050565b60005b8381101561165857808201518184015260208101905061163d565b60008484015250505050565b6000601f19601f8301169050919050565b60006116808261161e565b61168a8185611629565b935061169a81856020860161163a565b6116a381611664565b840191505092915050565b6116b78161141b565b82525050565b600060408301600083015184820360008601526116da8282611675565b91505060208301516116ef60208601826116ae565b508091505092915050565b6000602082019050818103600083015261171481846116bd565b905092915050565b6117258161141b565b82525050565b6000602082019050611740600083018461171c565b92915050565b61174f81611550565b811461175a57600080fd5b50565b60008135905061176c81611746565b92915050565b60006020828403121561178857611787611411565b5b60006117968482850161175d565b91505092915050565b60008115159050919050565b6117b48161179f565b82525050565b6060820160008201516117d060008501826117ab565b5060208201516117e360208501826117ab565b5060408201516117f660408501826116ae565b50505050565b600060608201905061181160008301846117ba565b92915050565b600082825260208201905092915050565b7f596f75277265206e6f74206120766f7465720000000000000000000000000000600082015250565b600061185e601283611817565b915061186982611828565b602082019050919050565b6000602082019050818103600083015261188d81611851565b9050919050565b7f566f74696e672073657373696f6e20686176656e74207374617274656420796560008201527f7400000000000000000000000000000000000000000000000000000000000000602082015250565b60006118f0602183611817565b91506118fb82611894565b604082019050919050565b6000602082019050818103600083015261191f816118e3565b9050919050565b7f596f75206861766520616c726561647920766f74656400000000000000000000600082015250565b600061195c601683611817565b915061196782611926565b602082019050919050565b6000602082019050818103600083015261198b8161194f565b9050919050565b7f50726f706f73616c206e6f7420666f756e640000000000000000000000000000600082015250565b60006119c8601283611817565b91506119d382611992565b602082019050919050565b600060208201905081810360008301526119f7816119bb565b9050919050565b7f4e487b7100000000000000000000000000000000000000000000000000000000600052603260045260246000fd5b7f4e487b7100000000000000000000000000000000000000000000000000000000600052601160045260246000fd5b6000611a678261141b565b91507fffffffffffffffffffffffffffffffffffffffffffffffffffffffffffffffff8203611a9957611a98611a2d565b5b600182019050919050565b6000604082019050611ab96000830185611562565b611ac6602083018461171c565b9392505050565b7f50726f706f73616c7320617265206e6f7420616c6c6f77656420796574000000600082015250565b6000611b03601d83611817565b9150611b0e82611acd565b602082019050919050565b60006020820190508181036000830152611b3281611af6565b9050919050565b50565b6000611b49600083611817565b9150611b5482611b39565b600082019050919050565b60006020820190508181036000830152611b7881611b3c565b9050919050565b82818337600083830152505050565b6000611b9a8385611817565b9350611ba7838584611b7f565b611bb083611664565b840190509392505050565b60006020820190508181036000830152611bd6818486611b8e565b90509392505050565b7f566f7573206e6520706f7576657a20706173206e65207269656e2070726f706f60008201527f7365720000000000000000000000000000000000000000000000000000000000602082015250565b6000611c3b602383611817565b9150611c4682611bdf565b604082019050919050565b60006020820190508181036000830152611c6a81611c2e565b9050919050565b7f4e487b7100000000000000000000000000000000000000000000000000000000600052604160045260246000fd5b7f4e487b7100000000000000000000000000000000000000000000000000000000600052602260045260246000fd5b60006002820490506001821680611ce757607f821691505b602082108103611cfa57611cf9611ca0565b5b50919050565b60008190508160005260206000209050919050565b60006020601f8301049050919050565b600082821b905092915050565b600060088302611d627fffffffffffffffffffffffffffffffffffffffffffffffffffffffffffffffff82611d25565b611d6c8683611d25565b95508019841693508086168417925050509392505050565b6000819050919050565b6000611da9611da4611d9f8461141b565b611d84565b61141b565b9050919050565b6000819050919050565b611dc383611d8e565b611dd7611dcf82611db0565b848454611d32565b825550505050565b600090565b611dec611ddf565b611df7818484611dba565b505050565b5b81811015611e1b57611e10600082611de4565b600181019050611dfd565b5050565b601f821115611e6057611e3181611d00565b611e3a84611d15565b81016020851015611e49578190505b611e5d611e5585611d15565b830182611dfc565b50505b505050565b600082821c905092915050565b6000611e8360001984600802611e65565b1980831691505092915050565b6000611e9c8383611e72565b9150826002028217905092915050565b611eb58261161e565b67ffffffffffffffff811115611ece57611ecd611c71565b5b611ed88254611ccf565b611ee3828285611e1f565b600060209050601f831160018114611f165760008415611f04578287015190505b611f0e8582611e90565b865550611f76565b601f198416611f2486611d00565b60005b82811015611f4c57848901518255600182019150602085019450602081019050611f27565b86831015611f695784890151611f65601f891682611e72565b8355505b6001600288020188555050505b505050505050565b6000611f898261141b565b9150611f948361141b565b9250828203905081811115611fac57611fab611a2d565b5b92915050565b7f43757272656e7420737461747573206973206e6f7420766f74696e672073657360008201527f73696f6e20656e64656400000000000000000000000000000000000000000000602082015250565b600061200e602a83611817565b915061201982611fb2565b604082019050919050565b6000602082019050818103600083015261203d81612001565b9050919050565b600060408201905061205960008301856115f4565b61206660208301846115f4565b9392505050565b7f5265676973746572696e672070726f706f73616c732063616e7420626520737460008201527f6172746564206e6f770000000000000000000000000000000000000000000000602082015250565b60006120c9602983611817565b91506120d48261206d565b604082019050919050565b600060208201905081810360008301526120f8816120bc565b9050919050565b7f5265676973746572696e672070726f706f73616c7320686176656e742073746160008201527f7274656420796574000000000000000000000000000000000000000000000000602082015250565b600061215b602883611817565b9150612166826120ff565b604082019050919050565b6000602082019050818103600083015261218a8161214e565b9050919050565b7f5265676973746572696e672070726f706f73616c73207068617365206973206e60008201527f6f742066696e6973686564000000000000000000000000000000000000000000602082015250565b60006121ed602b83611817565b91506121f882612191565b604082019050919050565b6000602082019050818103600083015261221c816121e0565b9050919050565b7f4f776e61626c653a206e6577206f776e657220697320746865207a65726f206160008201527f6464726573730000000000000000000000000000000000000000000000000000602082015250565b600061227f602683611817565b915061228a82612223565b604082019050919050565b600060208201905081810360008301526122ae81612272565b9050919050565b7f566f7465727320726567697374726174696f6e206973206e6f74206f70656e2060008201527f7965740000000000000000000000000000000000000000000000000000000000602082015250565b6000612311602383611817565b915061231c826122b5565b604082019050919050565b6000602082019050818103600083015261234081612304565b9050919050565b7f416c726561647920726567697374657265640000000000000000000000000000600082015250565b600061237d601283611817565b915061238882612347565b602082019050919050565b600060208201905081810360008301526123ac81612370565b9050919050565b7f4f776e61626c653a2063616c6c6572206973206e6f7420746865206f776e6572600082015250565b60006123e9602083611817565b91506123f4826123b3565b602082019050919050565b60006020820190508181036000830152612418816123dc565b905091905056fea26469706673582212200a9e453428a7058d73d53696130f905de184a8af866ca18a18496a98dc593ad664736f6c63430008120033",
  "immutableReferences": {},
  "source": "// SPDX-License-Identifier: MIT\n\npragma solidity 0.8.18;\nimport \"../node_modules/@openzeppelin/contracts/access/Ownable.sol\";\n\n/**\n * @title Voting\n * @dev Smart contract for conducting a voting process using blockchain technology\n * @author Alyra. Updated by Guilhain Averlant & Pierre Olivier Mauget\n * @notice This contract allows voters to register, submit proposals, and vote on proposals\n * @notice The voting process has multiple stages that are controlled by the contract owner\n * @notice Voters can only vote once and can only vote on proposals that have been registered\n * @notice The winning proposal is the one with the highest number of votes\n * @notice Only the contract owner can tally the votes and determine the winning proposal\n */\n\ncontract Voting is Ownable {\n\n    uint public winningProposalID;\n    \n    struct Voter {\n        bool isRegistered;\n        bool hasVoted;\n        uint votedProposalId;\n    }\n\n    struct Proposal {\n        string description;\n        uint voteCount;\n    }\n\n    enum  WorkflowStatus {\n        RegisteringVoters,\n        ProposalsRegistrationStarted,\n        ProposalsRegistrationEnded,\n        VotingSessionStarted,\n        VotingSessionEnded,\n        VotesTallied\n    }\n\n    WorkflowStatus public workflowStatus;\n    Proposal[] proposalsArray;\n    mapping (address => Voter) voters;\n\n\n    event VoterRegistered(address voterAddress); \n    event WorkflowStatusChange(WorkflowStatus previousStatus, WorkflowStatus newStatus);\n    event ProposalRegistered(uint proposalId);\n    event Voted (address voter, uint proposalId);\n    \n    modifier onlyVoters() {\n        require(voters[msg.sender].isRegistered, \"You're not a voter\");\n        _;\n    }\n    \n    // on peut faire un modifier pour les tats\n\n    // ::::::::::::: GETTERS ::::::::::::: //\n\n    /**\n    @dev Returns the voter information for a given address.\n    @param _addr The address of the voter.\n    @return The voter's information including registration status, vote status, and voted proposal ID.\n    */\n    function getVoter(address _addr) external onlyVoters view returns (Voter memory) {\n        return voters[_addr];\n    }\n    \n    /**\n    @dev Returns a single proposal from the proposalsArray based on its ID.\n    @param _id uint ID of the proposal to retrieve.\n    @return Proposal memory The proposal object containing all of its details.\n    */\n    function getOneProposal(uint _id) external onlyVoters view returns (Proposal memory) {\n        return proposalsArray[_id];\n    }\n\n \n    // ::::::::::::: REGISTRATION ::::::::::::: // \n\n    /**\n    @dev Registers a new voter by adding their address to the list of voters.\n    @param _addr The address of the voter to register.\n    @notice Requirements:\n    @notice     - The workflow status must be \"RegisteringVoters\".\n    @notice     - The voter must not already be registered.\n    @notice Emit a VoterRegistered event.\n    */\n    function addVoter(address _addr) external onlyOwner {\n        require(workflowStatus == WorkflowStatus.RegisteringVoters, 'Voters registration is not open yet');\n        require(voters[_addr].isRegistered != true, 'Already registered');\n    \n        voters[_addr].isRegistered = true;\n        emit VoterRegistered(_addr);\n    }\n \n\n    // ::::::::::::: PROPOSAL ::::::::::::: // \n\n    /**\n    @dev Adds a new proposal to the proposals array.\n    @param _desc A string representing the proposal's description.\n    @notice  Requirements:\n    @notice     - The workflow status must be set to ProposalsRegistrationStarted.\n    @notice     - The proposal description cannot be an empty string.\n    @notice     - Only registered voters can add a proposal.\n    @notice Emit a ProposalRegistered event.\n    */\n    function addProposal(string calldata _desc) external onlyVoters {\n        require(workflowStatus == WorkflowStatus.ProposalsRegistrationStarted, 'Proposals are not allowed yet');\n        require(keccak256(abi.encode(_desc)) != keccak256(abi.encode(\"\")), 'Vous ne pouvez pas ne rien proposer'); // facultatif\n        // voir que desc est different des autres\n\n        Proposal memory proposal;\n        proposal.description = _desc;\n        proposalsArray.push(proposal);\n        emit ProposalRegistered(proposalsArray.length-1);\n    }\n\n    // ::::::::::::: VOTE ::::::::::::: //\n\n    /**\n\n    @dev Allows a registered voter to vote for a proposal with a given ID.\n    @param _id The ID of the proposal to vote for.\n    @notice Requirements:\n    @notice     - Voting session must have started.\n    @notice     - The voter must not have voted before.\n    @notice     - The proposal ID must exist.\n    @notice Emit a Voted event.\n    */\n    function setVote( uint _id) external onlyVoters {\n        require(workflowStatus == WorkflowStatus.VotingSessionStarted, 'Voting session havent started yet');\n        require(voters[msg.sender].hasVoted != true, 'You have already voted');\n        require(_id < proposalsArray.length, 'Proposal not found'); // pas oblig, et pas besoin du >0 car uint\n\n        voters[msg.sender].votedProposalId = _id;\n        voters[msg.sender].hasVoted = true;\n        proposalsArray[_id].voteCount++;\n\n        emit Voted(msg.sender, _id);\n    }\n\n    // ::::::::::::: STATE ::::::::::::: //\n    \n    /**\n    @dev Allows the owner to start the proposals registration process\n    @notice This function can only be called when the workflow status is set to RegisteringVoters\n    @notice The function initializes the workflow status to ProposalsRegistrationStarted\n    @notice The function also creates a GENESIS proposal with id 0\n    @notice Emits a WorkflowStatusChange event with the old and new workflow status\n    */\n    function startProposalsRegistering() external onlyOwner {\n        require(workflowStatus == WorkflowStatus.RegisteringVoters, 'Registering proposals cant be started now');\n        workflowStatus = WorkflowStatus.ProposalsRegistrationStarted;\n        \n        Proposal memory proposal;\n        proposal.description = \"GENESIS\";\n        proposalsArray.push(proposal);\n        \n        emit WorkflowStatusChange(WorkflowStatus.RegisteringVoters, WorkflowStatus.ProposalsRegistrationStarted);\n    }\n\n    /**\n    @dev End the proposals registration period\n    @notice Only the owner can call this function\n    @notice The workflow status must be \"ProposalsRegistrationStarted\"\n    @notice Once the function is called, the workflow status will be changed to \"ProposalsRegistrationEnded\"\n    @notice Emits a \"WorkflowStatusChange\" event with the previous status \"ProposalsRegistrationStarted\" and the new status \"ProposalsRegistrationEnded\"\n    */\n    function endProposalsRegistering() external onlyOwner {\n        require(workflowStatus == WorkflowStatus.ProposalsRegistrationStarted, 'Registering proposals havent started yet');\n        workflowStatus = WorkflowStatus.ProposalsRegistrationEnded;\n        emit WorkflowStatusChange(WorkflowStatus.ProposalsRegistrationStarted, WorkflowStatus.ProposalsRegistrationEnded);\n    }\n\n    /**\n     * @dev Start the voting session, only the contract owner can call this function\n     * @notice The workflow status must be `ProposalsRegistrationEnded` to start the voting session\n     * @notice Emit a `WorkflowStatusChange` event with `ProposalsRegistrationEnded` and `VotingSessionStarted` as parameters\n     */\n    function startVotingSession() external onlyOwner {\n        require(workflowStatus == WorkflowStatus.ProposalsRegistrationEnded, 'Registering proposals phase is not finished');\n        workflowStatus = WorkflowStatus.VotingSessionStarted;\n        emit WorkflowStatusChange(WorkflowStatus.ProposalsRegistrationEnded, WorkflowStatus.VotingSessionStarted);\n    }\n\n    /**\n     * @dev End the voting session and update the workflow status to `VotingSessionEnded`.\n     * @notice This function can only be called by the contract owner.\n     * @notice Requires that the workflow status is currently `VotingSessionStarted`.\n     * @notice Emits a `WorkflowStatusChange` event with the previous and current workflow status.\n     */\n    function endVotingSession() external onlyOwner {\n        require(workflowStatus == WorkflowStatus.VotingSessionStarted, 'Voting session havent started yet');\n        workflowStatus = WorkflowStatus.VotingSessionEnded;\n        emit WorkflowStatusChange(WorkflowStatus.VotingSessionStarted, WorkflowStatus.VotingSessionEnded);\n    }\n\n    /**\n     * @dev Tally the votes and determine the winning proposal.\n     * @notice Can only be called by the owner of the contract.\n     * @notice The current status of the contract must be VotingSessionEnded.\n     * @notice Emits a WorkflowStatusChange event with the old and new statuses.\n     */\n   function tallyVotes() external onlyOwner {\n       require(workflowStatus == WorkflowStatus.VotingSessionEnded, \"Current status is not voting session ended\");\n       uint _winningProposalId;\n      for (uint256 p = 0; p < proposalsArray.length; p++) {\n           if (proposalsArray[p].voteCount > proposalsArray[_winningProposalId].voteCount) {\n               _winningProposalId = p;\n          }\n       }\n       winningProposalID = _winningProposalId;\n       \n       workflowStatus = WorkflowStatus.VotesTallied;\n       emit WorkflowStatusChange(WorkflowStatus.VotingSessionEnded, WorkflowStatus.VotesTallied);\n    }\n}\n",
  "sourcePath": "/Users/pom/workspace/VotingDapp/truffle/contracts/Voting.sol",
  "compiler": {
    "name": "solc",
    "version": "0.8.18+commit.87f61d96.Emscripten.clang"
  },
  "schemaVersion": "3.4.11",
  "updatedAt": "2023-03-17T14:45:47.612Z",
  "networkType": "ethereum",
  "devdoc": {
    "author": "Alyra. Updated by Guilhain Averlant & Pierre Olivier Mauget",
    "details": "Smart contract for conducting a voting process using blockchain technology",
    "kind": "dev",
    "methods": {
      "addProposal(string)": {
        "details": "Adds a new proposal to the proposals array.",
        "params": {
          "_desc": "A string representing the proposal's description."
        }
      },
      "addVoter(address)": {
        "details": "Registers a new voter by adding their address to the list of voters.",
        "params": {
          "_addr": "The address of the voter to register."
        }
      },
      "endProposalsRegistering()": {
        "details": "End the proposals registration period"
      },
      "endVotingSession()": {
        "details": "End the voting session and update the workflow status to `VotingSessionEnded`."
      },
      "getOneProposal(uint256)": {
        "details": "Returns a single proposal from the proposalsArray based on its ID.",
        "params": {
          "_id": "uint ID of the proposal to retrieve."
        },
        "returns": {
          "_0": "Proposal memory The proposal object containing all of its details."
        }
      },
      "getVoter(address)": {
        "details": "Returns the voter information for a given address.",
        "params": {
          "_addr": "The address of the voter."
        },
        "returns": {
          "_0": "The voter's information including registration status, vote status, and voted proposal ID."
        }
      },
      "owner()": {
        "details": "Returns the address of the current owner."
      },
      "renounceOwnership()": {
        "details": "Leaves the contract without owner. It will not be possible to call `onlyOwner` functions anymore. Can only be called by the current owner. NOTE: Renouncing ownership will leave the contract without an owner, thereby removing any functionality that is only available to the owner."
      },
      "setVote(uint256)": {
        "details": "Allows a registered voter to vote for a proposal with a given ID.",
        "params": {
          "_id": "The ID of the proposal to vote for."
        }
      },
      "startProposalsRegistering()": {
        "details": "Allows the owner to start the proposals registration process"
      },
      "startVotingSession()": {
        "details": "Start the voting session, only the contract owner can call this function"
      },
      "tallyVotes()": {
        "details": "Tally the votes and determine the winning proposal."
      },
      "transferOwnership(address)": {
        "details": "Transfers ownership of the contract to a new account (`newOwner`). Can only be called by the current owner."
      }
    },
    "title": "Voting",
    "version": 1
  },
  "userdoc": {
    "kind": "user",
    "methods": {
      "addProposal(string)": {
        "notice": "Requirements:- The workflow status must be set to ProposalsRegistrationStarted.- The proposal description cannot be an empty string.- Only registered voters can add a proposal.Emit a ProposalRegistered event."
      },
      "addVoter(address)": {
        "notice": "Requirements:- The workflow status must be \"RegisteringVoters\".- The voter must not already be registered.Emit a VoterRegistered event."
      },
      "endProposalsRegistering()": {
        "notice": "Only the owner can call this functionThe workflow status must be \"ProposalsRegistrationStarted\"Once the function is called, the workflow status will be changed to \"ProposalsRegistrationEnded\"Emits a \"WorkflowStatusChange\" event with the previous status \"ProposalsRegistrationStarted\" and the new status \"ProposalsRegistrationEnded\""
      },
      "endVotingSession()": {
        "notice": "This function can only be called by the contract owner.Requires that the workflow status is currently `VotingSessionStarted`.Emits a `WorkflowStatusChange` event with the previous and current workflow status."
      },
      "setVote(uint256)": {
        "notice": "Requirements:- Voting session must have started.- The voter must not have voted before.- The proposal ID must exist.Emit a Voted event."
      },
      "startProposalsRegistering()": {
        "notice": "This function can only be called when the workflow status is set to RegisteringVotersThe function initializes the workflow status to ProposalsRegistrationStartedThe function also creates a GENESIS proposal with id 0Emits a WorkflowStatusChange event with the old and new workflow status"
      },
      "startVotingSession()": {
        "notice": "The workflow status must be `ProposalsRegistrationEnded` to start the voting sessionEmit a `WorkflowStatusChange` event with `ProposalsRegistrationEnded` and `VotingSessionStarted` as parameters"
      },
      "tallyVotes()": {
        "notice": "Can only be called by the owner of the contract.The current status of the contract must be VotingSessionEnded.Emits a WorkflowStatusChange event with the old and new statuses."
      }
    },
    "notice": "This contract allows voters to register, submit proposals, and vote on proposalsThe voting process has multiple stages that are controlled by the contract ownerVoters can only vote once and can only vote on proposals that have been registeredThe winning proposal is the one with the highest number of votesOnly the contract owner can tally the votes and determine the winning proposal",
    "version": 1
  }
}