{
  "contractName": "Voting",
  "abi": [
    {
      "anonymous": false,
      "inputs": [
        {
          "indexed": true,
          "internalType": "address",
          "name": "previousOwner",
          "type": "address"
        },
        {
          "indexed": true,
          "internalType": "address",
          "name": "newOwner",
          "type": "address"
        }
      ],
      "name": "OwnershipTransferred",
      "type": "event"
    },
    {
      "anonymous": false,
      "inputs": [
        {
          "indexed": false,
          "internalType": "uint256",
          "name": "proposalId",
          "type": "uint256"
        }
      ],
      "name": "ProposalRegistered",
      "type": "event"
    },
    {
      "anonymous": false,
      "inputs": [
        {
          "indexed": false,
          "internalType": "address",
          "name": "voter",
          "type": "address"
        },
        {
          "indexed": false,
          "internalType": "uint256",
          "name": "proposalId",
          "type": "uint256"
        }
      ],
      "name": "Voted",
      "type": "event"
    },
    {
      "anonymous": false,
      "inputs": [
        {
          "indexed": false,
          "internalType": "address",
          "name": "voterAddress",
          "type": "address"
        }
      ],
      "name": "VoterRegistered",
      "type": "event"
    },
    {
      "anonymous": false,
      "inputs": [
        {
          "indexed": false,
          "internalType": "enum Voting.WorkflowStatus",
          "name": "previousStatus",
          "type": "uint8"
        },
        {
          "indexed": false,
          "internalType": "enum Voting.WorkflowStatus",
          "name": "newStatus",
          "type": "uint8"
        }
      ],
      "name": "WorkflowStatusChange",
      "type": "event"
    },
    {
      "inputs": [],
      "name": "owner",
      "outputs": [
        {
          "internalType": "address",
          "name": "",
          "type": "address"
        }
      ],
      "stateMutability": "view",
      "type": "function",
      "constant": true
    },
    {
      "inputs": [],
      "name": "renounceOwnership",
      "outputs": [],
      "stateMutability": "nonpayable",
      "type": "function"
    },
    {
      "inputs": [
        {
          "internalType": "address",
          "name": "newOwner",
          "type": "address"
        }
      ],
      "name": "transferOwnership",
      "outputs": [],
      "stateMutability": "nonpayable",
      "type": "function"
    },
    {
      "inputs": [],
      "name": "winningProposalID",
      "outputs": [
        {
          "internalType": "uint256",
          "name": "",
          "type": "uint256"
        }
      ],
      "stateMutability": "view",
      "type": "function",
      "constant": true
    },
    {
      "inputs": [],
      "name": "workflowStatus",
      "outputs": [
        {
          "internalType": "enum Voting.WorkflowStatus",
          "name": "",
          "type": "uint8"
        }
      ],
      "stateMutability": "view",
      "type": "function",
      "constant": true
    },
    {
      "inputs": [
        {
          "internalType": "address",
          "name": "_addr",
          "type": "address"
        }
      ],
      "name": "getVoter",
      "outputs": [
        {
          "components": [
            {
              "internalType": "bool",
              "name": "isRegistered",
              "type": "bool"
            },
            {
              "internalType": "bool",
              "name": "hasVoted",
              "type": "bool"
            },
            {
              "internalType": "uint256",
              "name": "votedProposalId",
              "type": "uint256"
            }
          ],
          "internalType": "struct Voting.Voter",
          "name": "",
          "type": "tuple"
        }
      ],
      "stateMutability": "view",
      "type": "function",
      "constant": true
    },
    {
      "inputs": [
        {
          "internalType": "uint256",
          "name": "_id",
          "type": "uint256"
        }
      ],
      "name": "getOneProposal",
      "outputs": [
        {
          "components": [
            {
              "internalType": "string",
              "name": "description",
              "type": "string"
            },
            {
              "internalType": "uint256",
              "name": "voteCount",
              "type": "uint256"
            }
          ],
          "internalType": "struct Voting.Proposal",
          "name": "",
          "type": "tuple"
        }
      ],
      "stateMutability": "view",
      "type": "function",
      "constant": true
    },
    {
      "inputs": [
        {
          "internalType": "address",
          "name": "_addr",
          "type": "address"
        }
      ],
      "name": "addVoter",
      "outputs": [],
      "stateMutability": "nonpayable",
      "type": "function"
    },
    {
      "inputs": [
        {
          "internalType": "string",
          "name": "_desc",
          "type": "string"
        }
      ],
      "name": "addProposal",
      "outputs": [],
      "stateMutability": "nonpayable",
      "type": "function"
    },
    {
      "inputs": [
        {
          "internalType": "uint256",
          "name": "_id",
          "type": "uint256"
        }
      ],
      "name": "setVote",
      "outputs": [],
      "stateMutability": "nonpayable",
      "type": "function"
    },
    {
      "inputs": [],
      "name": "startProposalsRegistering",
      "outputs": [],
      "stateMutability": "nonpayable",
      "type": "function"
    },
    {
      "inputs": [],
      "name": "endProposalsRegistering",
      "outputs": [],
      "stateMutability": "nonpayable",
      "type": "function"
    },
    {
      "inputs": [],
      "name": "startVotingSession",
      "outputs": [],
      "stateMutability": "nonpayable",
      "type": "function"
    },
    {
      "inputs": [],
      "name": "endVotingSession",
      "outputs": [],
      "stateMutability": "nonpayable",
      "type": "function"
    }
  ],
  "bytecode": "0x608060405234801561001057600080fd5b5061002d61002261003260201b60201c565b61003a60201b60201c565b6100fe565b600033905090565b60008060009054906101000a900473ffffffffffffffffffffffffffffffffffffffff169050816000806101000a81548173ffffffffffffffffffffffffffffffffffffffff021916908373ffffffffffffffffffffffffffffffffffffffff1602179055508173ffffffffffffffffffffffffffffffffffffffff168173ffffffffffffffffffffffffffffffffffffffff167f8be0079c531659141344cd1fd0a4f28419497f9722a3daafe3b4186f6b6457e060405160405180910390a35050565b612254806200010e6000396000f3fe608060405234801561001057600080fd5b50600436106100ea5760003560e01c8063bdc014311161008c578063d4f50f9811610066578063d4f50f98146101d9578063ee74c67814610209578063f2fde38b14610213578063f4ab9adf1461022f576100ea565b8063bdc01431146101a7578063c7038a4e146101c5578063c88af42f146101cf576100ea565b80638da5cb5b116100c85780638da5cb5b14610131578063a1edffa21461014f578063a2788cce1461016d578063a7bfab161461019d576100ea565b8063230796ae146100ef5780632fdae3c51461010b578063715018a614610127575b600080fd5b61010960048036038101906101049190611311565b61024b565b005b610125600480360381019061012091906113a3565b610573565b005b61012f6107ec565b005b610139610800565b6040516101469190611431565b60405180910390f35b610157610829565b60405161016491906114c3565b60405180910390f35b61018760048036038101906101829190611311565b61083c565b60405161019491906115ba565b60405180910390f35b6101a56109d9565b005b6101af610abf565b6040516101bc91906115eb565b60405180910390f35b6101cd610ac5565b005b6101d7610c29565b005b6101f360048036038101906101ee9190611632565b610d0f565b60405161020091906116bc565b60405180910390f35b610211610e37565b005b61022d60048036038101906102289190611632565b610f1c565b005b61024960048036038101906102449190611632565b610f9f565b005b600560003373ffffffffffffffffffffffffffffffffffffffff1673ffffffffffffffffffffffffffffffffffffffff16815260200190815260200160002060000160009054906101000a900460ff166102da576040517f08c379a00000000000000000000000000000000000000000000000000000000081526004016102d190611734565b60405180910390fd5b600360048111156102ee576102ed61144c565b5b600360009054906101000a900460ff1660048111156103105761030f61144c565b5b14610350576040517f08c379a0000000000000000000000000000000000000000000000000000000008152600401610347906117c6565b60405180910390fd5b60011515600560003373ffffffffffffffffffffffffffffffffffffffff1673ffffffffffffffffffffffffffffffffffffffff16815260200190815260200160002060000160019054906101000a900460ff161515036103e6576040517f08c379a00000000000000000000000000000000000000000000000000000000081526004016103dd90611832565b60405180910390fd5b60025481111561042b576040517f08c379a00000000000000000000000000000000000000000000000000000000081526004016104229061189e565b60405180910390fd5b80600560003373ffffffffffffffffffffffffffffffffffffffff1673ffffffffffffffffffffffffffffffffffffffff168152602001908152602001600020600101819055506001600560003373ffffffffffffffffffffffffffffffffffffffff1673ffffffffffffffffffffffffffffffffffffffff16815260200190815260200160002060000160016101000a81548160ff0219169083151502179055506004600082815260200190815260200160002060010160008154809291906104f4906118ed565b9190505550600460006001548152602001908152602001600020600101546004600083815260200190815260200160002060010154111561053757806001819055505b7f4d99b957a2bc29a30ebd96a7be8e68fe50a3c701db28a91436490b7d53870ca43382604051610568929190611935565b60405180910390a150565b600560003373ffffffffffffffffffffffffffffffffffffffff1673ffffffffffffffffffffffffffffffffffffffff16815260200190815260200160002060000160009054906101000a900460ff16610602576040517f08c379a00000000000000000000000000000000000000000000000000000000081526004016105f990611734565b60405180910390fd5b600160048111156106165761061561144c565b5b600360009054906101000a900460ff1660048111156106385761063761144c565b5b14610678576040517f08c379a000000000000000000000000000000000000000000000000000000000815260040161066f906119aa565b60405180910390fd5b604051602001610687906119f0565b6040516020818303038152906040528051906020012082826040516020016106b0929190611a4c565b6040516020818303038152906040528051906020012003610706576040517f08c379a00000000000000000000000000000000000000000000000000000000081526004016106fd90611ae2565b60405180910390fd5b61070e611292565b82828080601f016020809104026020016040519081016040528093929190818152602001838380828437600081840152601f19601f82011690508083019250505050505050816000018190525060016002600082825461076e9190611b02565b925050819055508060046000600254815260200190815260200160002060008201518160000190816107a09190611d71565b50602082015181600101559050507f92e393e9b54e2f801d3ea4beb0c5e71a21cc34a5d34b77d0fb8a3aa1650dc18f6002546040516107df91906115eb565b60405180910390a1505050565b6107f4611148565b6107fe60006111c6565b565b60008060009054906101000a900473ffffffffffffffffffffffffffffffffffffffff16905090565b600360009054906101000a900460ff1681565b610844611292565b600560003373ffffffffffffffffffffffffffffffffffffffff1673ffffffffffffffffffffffffffffffffffffffff16815260200190815260200160002060000160009054906101000a900460ff166108d3576040517f08c379a00000000000000000000000000000000000000000000000000000000081526004016108ca90611734565b60405180910390fd5b600254821115610918576040517f08c379a000000000000000000000000000000000000000000000000000000000815260040161090f9061189e565b60405180910390fd5b6004600083815260200190815260200160002060405180604001604052908160008201805461094690611b94565b80601f016020809104026020016040519081016040528092919081815260200182805461097290611b94565b80156109bf5780601f10610994576101008083540402835291602001916109bf565b820191906000526020600020905b8154815290600101906020018083116109a257829003601f168201915b505050505081526020016001820154815250509050919050565b6109e1611148565b600360048111156109f5576109f461144c565b5b600360009054906101000a900460ff166004811115610a1757610a1661144c565b5b14610a57576040517f08c379a0000000000000000000000000000000000000000000000000000000008152600401610a4e906117c6565b60405180910390fd5b6004600360006101000a81548160ff02191690836004811115610a7d57610a7c61144c565b5b02179055507f0a97a4ee45751e2abf3e4fc8946939630b11b371ea8ae39ccdc3056e98f5cc3f60036004604051610ab5929190611e43565b60405180910390a1565b60015481565b610acd611148565b60006004811115610ae157610ae061144c565b5b600360009054906101000a900460ff166004811115610b0357610b0261144c565b5b14610b43576040517f08c379a0000000000000000000000000000000000000000000000000000000008152600401610b3a90611ede565b60405180910390fd5b6001600360006101000a81548160ff02191690836004811115610b6957610b6861144c565b5b0217905550610b76611292565b6040518060400160405280600781526020017f47454e4553495300000000000000000000000000000000000000000000000000815250816000018190525080600460008081526020019081526020016000206000820151816000019081610bdd9190611d71565b50602082015181600101559050507f0a97a4ee45751e2abf3e4fc8946939630b11b371ea8ae39ccdc3056e98f5cc3f60006001604051610c1e929190611e43565b60405180910390a150565b610c31611148565b60016004811115610c4557610c4461144c565b5b600360009054906101000a900460ff166004811115610c6757610c6661144c565b5b14610ca7576040517f08c379a0000000000000000000000000000000000000000000000000000000008152600401610c9e90611f70565b60405180910390fd5b6002600360006101000a81548160ff02191690836004811115610ccd57610ccc61144c565b5b02179055507f0a97a4ee45751e2abf3e4fc8946939630b11b371ea8ae39ccdc3056e98f5cc3f60016002604051610d05929190611e43565b60405180910390a1565b610d176112ac565b600560003373ffffffffffffffffffffffffffffffffffffffff1673ffffffffffffffffffffffffffffffffffffffff16815260200190815260200160002060000160009054906101000a900460ff16610da6576040517f08c379a0000000000000000000000000000000000000000000000000000000008152600401610d9d90611734565b60405180910390fd5b600560008373ffffffffffffffffffffffffffffffffffffffff1673ffffffffffffffffffffffffffffffffffffffff1681526020019081526020016000206040518060600160405290816000820160009054906101000a900460ff161515151581526020016000820160019054906101000a900460ff161515151581526020016001820154815250509050919050565b610e3f611148565b60026004811115610e5357610e5261144c565b5b600360009054906101000a900460ff166004811115610e7557610e7461144c565b5b14610eb5576040517f08c379a0000000000000000000000000000000000000000000000000000000008152600401610eac90612002565b60405180910390fd5b60038060006101000a81548160ff02191690836004811115610eda57610ed961144c565b5b02179055507f0a97a4ee45751e2abf3e4fc8946939630b11b371ea8ae39ccdc3056e98f5cc3f60026003604051610f12929190611e43565b60405180910390a1565b610f24611148565b600073ffffffffffffffffffffffffffffffffffffffff168173ffffffffffffffffffffffffffffffffffffffff1603610f93576040517f08c379a0000000000000000000000000000000000000000000000000000000008152600401610f8a90612094565b60405180910390fd5b610f9c816111c6565b50565b610fa7611148565b60006004811115610fbb57610fba61144c565b5b600360009054906101000a900460ff166004811115610fdd57610fdc61144c565b5b1461101d576040517f08c379a000000000000000000000000000000000000000000000000000000000815260040161101490612126565b60405180910390fd5b60011515600560008373ffffffffffffffffffffffffffffffffffffffff1673ffffffffffffffffffffffffffffffffffffffff16815260200190815260200160002060000160009054906101000a900460ff161515036110b3576040517f08c379a00000000000000000000000000000000000000000000000000000000081526004016110aa90612192565b60405180910390fd5b6001600560008373ffffffffffffffffffffffffffffffffffffffff1673ffffffffffffffffffffffffffffffffffffffff16815260200190815260200160002060000160006101000a81548160ff0219169083151502179055507fb6be2187d059cc2a55fe29e0e503b566e1e0f8c8780096e185429350acffd3dd8160405161113d9190611431565b60405180910390a150565b61115061128a565b73ffffffffffffffffffffffffffffffffffffffff1661116e610800565b73ffffffffffffffffffffffffffffffffffffffff16146111c4576040517f08c379a00000000000000000000000000000000000000000000000000000000081526004016111bb906121fe565b60405180910390fd5b565b60008060009054906101000a900473ffffffffffffffffffffffffffffffffffffffff169050816000806101000a81548173ffffffffffffffffffffffffffffffffffffffff021916908373ffffffffffffffffffffffffffffffffffffffff1602179055508173ffffffffffffffffffffffffffffffffffffffff168173ffffffffffffffffffffffffffffffffffffffff167f8be0079c531659141344cd1fd0a4f28419497f9722a3daafe3b4186f6b6457e060405160405180910390a35050565b600033905090565b604051806040016040528060608152602001600081525090565b6040518060600160405280600015158152602001600015158152602001600081525090565b600080fd5b600080fd5b6000819050919050565b6112ee816112db565b81146112f957600080fd5b50565b60008135905061130b816112e5565b92915050565b600060208284031215611327576113266112d1565b5b6000611335848285016112fc565b91505092915050565b600080fd5b600080fd5b600080fd5b60008083601f8401126113635761136261133e565b5b8235905067ffffffffffffffff8111156113805761137f611343565b5b60208301915083600182028301111561139c5761139b611348565b5b9250929050565b600080602083850312156113ba576113b96112d1565b5b600083013567ffffffffffffffff8111156113d8576113d76112d6565b5b6113e48582860161134d565b92509250509250929050565b600073ffffffffffffffffffffffffffffffffffffffff82169050919050565b600061141b826113f0565b9050919050565b61142b81611410565b82525050565b60006020820190506114466000830184611422565b92915050565b7f4e487b7100000000000000000000000000000000000000000000000000000000600052602160045260246000fd5b6005811061148c5761148b61144c565b5b50565b600081905061149d8261147b565b919050565b60006114ad8261148f565b9050919050565b6114bd816114a2565b82525050565b60006020820190506114d860008301846114b4565b92915050565b600081519050919050565b600082825260208201905092915050565b60005b838110156115185780820151818401526020810190506114fd565b60008484015250505050565b6000601f19601f8301169050919050565b6000611540826114de565b61154a81856114e9565b935061155a8185602086016114fa565b61156381611524565b840191505092915050565b611577816112db565b82525050565b6000604083016000830151848203600086015261159a8282611535565b91505060208301516115af602086018261156e565b508091505092915050565b600060208201905081810360008301526115d4818461157d565b905092915050565b6115e5816112db565b82525050565b600060208201905061160060008301846115dc565b92915050565b61160f81611410565b811461161a57600080fd5b50565b60008135905061162c81611606565b92915050565b600060208284031215611648576116476112d1565b5b60006116568482850161161d565b91505092915050565b60008115159050919050565b6116748161165f565b82525050565b606082016000820151611690600085018261166b565b5060208201516116a3602085018261166b565b5060408201516116b6604085018261156e565b50505050565b60006060820190506116d1600083018461167a565b92915050565b600082825260208201905092915050565b7f596f75277265206e6f74206120766f7465720000000000000000000000000000600082015250565b600061171e6012836116d7565b9150611729826116e8565b602082019050919050565b6000602082019050818103600083015261174d81611711565b9050919050565b7f566f74696e672073657373696f6e20686176656e74207374617274656420796560008201527f7400000000000000000000000000000000000000000000000000000000000000602082015250565b60006117b06021836116d7565b91506117bb82611754565b604082019050919050565b600060208201905081810360008301526117df816117a3565b9050919050565b7f596f75206861766520616c726561647920766f74656400000000000000000000600082015250565b600061181c6016836116d7565b9150611827826117e6565b602082019050919050565b6000602082019050818103600083015261184b8161180f565b9050919050565b7f50726f706f73616c206e6f7420666f756e640000000000000000000000000000600082015250565b60006118886012836116d7565b915061189382611852565b602082019050919050565b600060208201905081810360008301526118b78161187b565b9050919050565b7f4e487b7100000000000000000000000000000000000000000000000000000000600052601160045260246000fd5b60006118f8826112db565b91507fffffffffffffffffffffffffffffffffffffffffffffffffffffffffffffffff820361192a576119296118be565b5b600182019050919050565b600060408201905061194a6000830185611422565b61195760208301846115dc565b9392505050565b7f50726f706f73616c7320617265206e6f7420616c6c6f77656420796574000000600082015250565b6000611994601d836116d7565b915061199f8261195e565b602082019050919050565b600060208201905081810360008301526119c381611987565b9050919050565b50565b60006119da6000836116d7565b91506119e5826119ca565b600082019050919050565b60006020820190508181036000830152611a09816119cd565b9050919050565b82818337600083830152505050565b6000611a2b83856116d7565b9350611a38838584611a10565b611a4183611524565b840190509392505050565b60006020820190508181036000830152611a67818486611a1f565b90509392505050565b7f566f7573206e6520706f7576657a20706173206e65207269656e2070726f706f60008201527f7365720000000000000000000000000000000000000000000000000000000000602082015250565b6000611acc6023836116d7565b9150611ad782611a70565b604082019050919050565b60006020820190508181036000830152611afb81611abf565b9050919050565b6000611b0d826112db565b9150611b18836112db565b9250828201905080821115611b3057611b2f6118be565b5b92915050565b7f4e487b7100000000000000000000000000000000000000000000000000000000600052604160045260246000fd5b7f4e487b7100000000000000000000000000000000000000000000000000000000600052602260045260246000fd5b60006002820490506001821680611bac57607f821691505b602082108103611bbf57611bbe611b65565b5b50919050565b60008190508160005260206000209050919050565b60006020601f8301049050919050565b600082821b905092915050565b600060088302611c277fffffffffffffffffffffffffffffffffffffffffffffffffffffffffffffffff82611bea565b611c318683611bea565b95508019841693508086168417925050509392505050565b6000819050919050565b6000611c6e611c69611c64846112db565b611c49565b6112db565b9050919050565b6000819050919050565b611c8883611c53565b611c9c611c9482611c75565b848454611bf7565b825550505050565b600090565b611cb1611ca4565b611cbc818484611c7f565b505050565b5b81811015611ce057611cd5600082611ca9565b600181019050611cc2565b5050565b601f821115611d2557611cf681611bc5565b611cff84611bda565b81016020851015611d0e578190505b611d22611d1a85611bda565b830182611cc1565b50505b505050565b600082821c905092915050565b6000611d4860001984600802611d2a565b1980831691505092915050565b6000611d618383611d37565b9150826002028217905092915050565b611d7a826114de565b67ffffffffffffffff811115611d9357611d92611b36565b5b611d9d8254611b94565b611da8828285611ce4565b600060209050601f831160018114611ddb5760008415611dc9578287015190505b611dd38582611d55565b865550611e3b565b601f198416611de986611bc5565b60005b82811015611e1157848901518255600182019150602085019450602081019050611dec565b86831015611e2e5784890151611e2a601f891682611d37565b8355505b6001600288020188555050505b505050505050565b6000604082019050611e5860008301856114b4565b611e6560208301846114b4565b9392505050565b7f5265676973746572696e672070726f706f73616c732063616e7420626520737460008201527f6172746564206e6f770000000000000000000000000000000000000000000000602082015250565b6000611ec86029836116d7565b9150611ed382611e6c565b604082019050919050565b60006020820190508181036000830152611ef781611ebb565b9050919050565b7f5265676973746572696e672070726f706f73616c7320686176656e742073746160008201527f7274656420796574000000000000000000000000000000000000000000000000602082015250565b6000611f5a6028836116d7565b9150611f6582611efe565b604082019050919050565b60006020820190508181036000830152611f8981611f4d565b9050919050565b7f5265676973746572696e672070726f706f73616c73207068617365206973206e60008201527f6f742066696e6973686564000000000000000000000000000000000000000000602082015250565b6000611fec602b836116d7565b9150611ff782611f90565b604082019050919050565b6000602082019050818103600083015261201b81611fdf565b9050919050565b7f4f776e61626c653a206e6577206f776e657220697320746865207a65726f206160008201527f6464726573730000000000000000000000000000000000000000000000000000602082015250565b600061207e6026836116d7565b915061208982612022565b604082019050919050565b600060208201905081810360008301526120ad81612071565b9050919050565b7f566f7465727320726567697374726174696f6e206973206e6f74206f70656e2060008201527f7965740000000000000000000000000000000000000000000000000000000000602082015250565b60006121106023836116d7565b915061211b826120b4565b604082019050919050565b6000602082019050818103600083015261213f81612103565b9050919050565b7f416c726561647920726567697374657265640000000000000000000000000000600082015250565b600061217c6012836116d7565b915061218782612146565b602082019050919050565b600060208201905081810360008301526121ab8161216f565b9050919050565b7f4f776e61626c653a2063616c6c6572206973206e6f7420746865206f776e6572600082015250565b60006121e86020836116d7565b91506121f3826121b2565b602082019050919050565b60006020820190508181036000830152612217816121db565b905091905056fea2646970667358221220719d244efa795828aeb9ca695d6c0be5f252450259424f4a1f88d869ec2d26be64736f6c63430008120033",
  "immutableReferences": {},
  "source": "// SPDX-License-Identifier: MIT\n\npragma solidity 0.8.18;\nimport \"../node_modules/@openzeppelin/contracts/access/Ownable.sol\";\n\n/*\n @title Voting\n @dev Smart contract for conducting a voting process using blockchain technology\n @author Alyra. Updated by Guilhain Averlant & Pierre Olivier Mauget\n @notice This contract allows voters to register, submit proposals, and vote on proposals\n @notice The voting process has multiple stages that are controlled by the contract owner\n @notice Voters can only vote once and can only vote on proposals that have been registered\n @notice The winning proposal is the one with the highest number of votes\n*/\n\ncontract Voting is Ownable {\n\n    uint public winningProposalID;\n    uint proposalID;\n\n    struct Voter {\n        bool isRegistered;\n        bool hasVoted;\n        uint votedProposalId;\n    }\n\n    struct Proposal {\n        string description;\n        uint voteCount;\n    }\n\n    enum  WorkflowStatus {\n        RegisteringVoters,\n        ProposalsRegistrationStarted,\n        ProposalsRegistrationEnded,\n        VotingSessionStarted,\n        VotingSessionEnded\n    }\n\n    WorkflowStatus public workflowStatus;\n    // Proposal[] proposalsArray;\n    mapping (uint => Proposal) proposalsMapping;\n    mapping (address => Voter) voters;\n\n\n    event VoterRegistered(address voterAddress);\n    event WorkflowStatusChange(WorkflowStatus previousStatus, WorkflowStatus newStatus);\n    event ProposalRegistered(uint proposalId);\n    event Voted (address voter, uint proposalId);\n\n    modifier onlyVoters() {\n        require(voters[msg.sender].isRegistered, \"You're not a voter\");\n        _;\n    }\n\n    // on peut faire un modifier pour les tats\n\n    // ::::::::::::: GETTERS ::::::::::::: //\n\n    /*\n    @notice Returns the voter information for a given address.\n    @param _addr The address of the voter.\n    @return The voter's information including registration status, vote status, and voted proposal ID.\n    */\n    function getVoter(address _addr) external onlyVoters view returns (Voter memory) {\n        return voters[_addr];\n    }\n\n    /*\n    @notice Returns a single proposal from the proposalsMapping based on its ID.\n    @param _id uint ID of the proposal to retrieve.\n    @return Proposal memory The proposal object containing all of its details.\n    */\n    function getOneProposal(uint _id) external onlyVoters view returns (Proposal memory) {\n        require(_id <= proposalID, 'Proposal not found'); // pas oblig, et pas besoin du >0 car uint\n\n        return proposalsMapping[_id];\n    }\n\n\n    // ::::::::::::: REGISTRATION ::::::::::::: //\n\n    /*\n    @notice Registers a new voter by adding their address to the list of voters.\n    @dev Requirements:\n    @dev     - The workflow status must be \"RegisteringVoters\".\n    @dev     - The voter must not already be registered.\n    @param _addr The address of the voter to register.\n    @emit a VoterRegistered event.\n    */\n    function addVoter(address _addr) external onlyOwner {\n        require(workflowStatus == WorkflowStatus.RegisteringVoters, 'Voters registration is not open yet');\n        require(voters[_addr].isRegistered != true, 'Already registered');\n\n        voters[_addr].isRegistered = true;\n        emit VoterRegistered(_addr);\n    }\n\n\n    // ::::::::::::: PROPOSAL ::::::::::::: //\n\n    /*\n    @notice Adds a new proposal to the proposals array.\n    @dev  Requirements:\n    @dev     - The workflow status must be set to ProposalsRegistrationStarted.\n    @dev     - The proposal description cannot be an empty string.\n    @dev     - Only registered voters can add a proposal.\n    @param _desc A string representing the proposal's description.\n    @emit a ProposalRegistered event.\n    */\n    function addProposal(string calldata _desc) external onlyVoters {\n        require(workflowStatus == WorkflowStatus.ProposalsRegistrationStarted, 'Proposals are not allowed yet');\n        require(keccak256(abi.encode(_desc)) != keccak256(abi.encode(\"\")), 'Vous ne pouvez pas ne rien proposer'); // facultatif\n        // voir que desc est different des autres\n\n        Proposal memory proposal;\n        proposal.description = _desc;\n        proposalID += 1;\n        proposalsMapping[proposalID] = proposal;\n        emit ProposalRegistered(proposalID);\n    }\n\n    // ::::::::::::: VOTE ::::::::::::: //\n\n    /*\n    @notice Allows a registered voter to vote for a proposal with a given ID.\n    @dev Requirements:\n    @dev     - Voting session must have started.\n    @dev     - The voter must not have voted before.\n    @dev     - The proposal ID must exist.\n    @dev To avoid Gas Limit Exceeded error, we compute the winning proposal ID in the same function\n    @param _id The ID of the proposal to vote for.\n    @emit a Voted event.\n    */\n    function setVote(uint _id) external onlyVoters {\n        require(workflowStatus == WorkflowStatus.VotingSessionStarted, 'Voting session havent started yet');\n        require(voters[msg.sender].hasVoted != true, 'You have already voted');\n        require(_id <= proposalID, 'Proposal not found'); // pas oblig, et pas besoin du >0 car uint\n\n        voters[msg.sender].votedProposalId = _id;\n        voters[msg.sender].hasVoted = true;\n        proposalsMapping[_id].voteCount++;\n\n        // we compute the winning proposal\n        if (proposalsMapping[_id].voteCount > proposalsMapping[winningProposalID].voteCount) {\n            winningProposalID = _id;\n        }\n\n        emit Voted(msg.sender, _id);\n    }\n\n    // ::::::::::::: STATE ::::::::::::: //\n    \n    /*\n    @notice Allows the owner to start the proposals registration process\n    @dev This function can only be called when the workflow status is set to RegisteringVoters\n    @dev The function initializes the workflow status to ProposalsRegistrationStarted\n    @dev The function also creates a GENESIS proposal with id 0\n    @emit a WorkflowStatusChange event with the old and new workflow status\n    */\n    function startProposalsRegistering() external onlyOwner {\n        require(workflowStatus == WorkflowStatus.RegisteringVoters, 'Registering proposals cant be started now');\n        workflowStatus = WorkflowStatus.ProposalsRegistrationStarted;\n        \n        Proposal memory proposal;\n        proposal.description = \"GENESIS\";\n        proposalsMapping[0] = proposal;\n        \n        emit WorkflowStatusChange(WorkflowStatus.RegisteringVoters, WorkflowStatus.ProposalsRegistrationStarted);\n    }\n\n    /*\n    @notice End the proposals registration period\n    @dev Only the owner can call this function\n    @dev The workflow status must be \"ProposalsRegistrationStarted\"\n    @dev Once the function is called, the workflow status will be changed to \"ProposalsRegistrationEnded\"\n    @emit a \"WorkflowStatusChange\" event with the previous status \"ProposalsRegistrationStarted\" and the new status \"ProposalsRegistrationEnded\"\n    */\n    function endProposalsRegistering() external onlyOwner {\n        require(workflowStatus == WorkflowStatus.ProposalsRegistrationStarted, 'Registering proposals havent started yet');\n        workflowStatus = WorkflowStatus.ProposalsRegistrationEnded;\n        emit WorkflowStatusChange(WorkflowStatus.ProposalsRegistrationStarted, WorkflowStatus.ProposalsRegistrationEnded);\n    }\n\n    /*\n     * @notice Start the voting session, only the contract owner can call this function\n     * @dev The workflow status must be `ProposalsRegistrationEnded` to start the voting session\n     * @emit a `WorkflowStatusChange` event with `ProposalsRegistrationEnded` and `VotingSessionStarted` as parameters\n    */\n    function startVotingSession() external onlyOwner {\n        require(workflowStatus == WorkflowStatus.ProposalsRegistrationEnded, 'Registering proposals phase is not finished');\n        workflowStatus = WorkflowStatus.VotingSessionStarted;\n        emit WorkflowStatusChange(WorkflowStatus.ProposalsRegistrationEnded, WorkflowStatus.VotingSessionStarted);\n    }\n\n    /*\n    @notice End the voting session and update the workflow status to `VotingSessionEnded`.\n    @dev This function can only be called by the contract owner.\n    @dev Requires that the workflow status is currently `VotingSessionStarted`.\n    @emit a `WorkflowStatusChange` event with the previous and current workflow status.\n    */\n    function endVotingSession() external onlyOwner {\n        require(workflowStatus == WorkflowStatus.VotingSessionStarted, 'Voting session havent started yet');\n        workflowStatus = WorkflowStatus.VotingSessionEnded;\n        emit WorkflowStatusChange(WorkflowStatus.VotingSessionStarted, WorkflowStatus.VotingSessionEnded);\n    }\n\n}\n",
  "sourcePath": "/Users/pom/workspace/VotingDapp/truffle/contracts/Voting.sol",
  "compiler": {
    "name": "solc",
    "version": "0.8.18+commit.87f61d96.Emscripten.clang"
  },
  "schemaVersion": "3.4.11",
  "updatedAt": "2023-03-20T21:39:14.978Z",
  "networkType": "ethereum",
  "devdoc": {
    "kind": "dev",
    "methods": {
      "owner()": {
        "details": "Returns the address of the current owner."
      },
      "renounceOwnership()": {
        "details": "Leaves the contract without owner. It will not be possible to call `onlyOwner` functions anymore. Can only be called by the current owner. NOTE: Renouncing ownership will leave the contract without an owner, thereby removing any functionality that is only available to the owner."
      },
      "transferOwnership(address)": {
        "details": "Transfers ownership of the contract to a new account (`newOwner`). Can only be called by the current owner."
      }
    },
    "version": 1
  },
  "userdoc": {
    "kind": "user",
    "methods": {},
    "version": 1
  }
}